:100AA1003F065B4F666D7D077F6744114422114409
:0A0AB100224488118822118822884F
:100A8400E4FFFEE4FDFC0DBD00010CBC04F8BDFB5D
:0C0A9400F50FBF00010EEF64324E70E75A
:010AA0002233
:080A03008E1E8F1F8C208D2137
:100A0B0078247C007D007BFF7A0A79A17E007F0A27
:100A1B001208D0AE20AF217C007D021208F6ED4CFF
:100A2B007007F5227523018005E4F522F523AB1F32
:100A3B00AA1EC3EB9523E5226480F8EA64809840F4
:100A4B002F90000974242BF8E6F5A0AF8274242FA5
:100A5B00F8E6F5B0120A84E582158270021583E57B
:100A6B0082B4FFE0E583B4FFDBEB1B70C51A80C2D9
:080A7B000521E52170020520B0
:010A83002250
:10098100E4F50CF50D780E7C00FD7BFF7A0A79AB5E
:10099100FE7F101208D0E4F580F590F5A0F5B0F5D2
:1009A1000AF50BE4F508F509AF09740E2FF8E6F521
:1009B10080740F2FF8E6F590AE0AAF0B7C007D0234
:1009C1001208F6ED4CAD0DAC0C70047F048002E40E
:1009D100FFFE120A03050BE50B7002050A0509E586
:1009E1000970020508050DE50D7002050C0509E504
:1009F1000970020508C39410E5086480948040A83A
:020A010080A1D2
:03000000020ABB36
:0C0ABB00787FE4F6D8FD75812D020981DA
:10080000E709F608DFFA8046E709F208DFFA803EDA
:1008100088828C83E709F0A3DFFA8032E309F608C7
:10082000DFFA8078E309F208DFFA807088828C832F
:10083000E309F0A3DFFA806489828A83E0A3F608E3
:10084000DFFA805889828A83E0A3F208DFFA804CBD
:1008500080D280FA80C680D4806980F28033801094
:1008600080A680EA809A80A880DA80E280CA8033FD
:1008700089828A83ECFAE493A3C8C582C8CCC58375
:10088000CCF0A3C8C582C8CCC583CCDFE9DEE78045
:100890000D89828A83E493A3F608DFF9ECFAA9F0C4
:1008A000EDFB2289828A83ECFAE0A3C8C582C8CC1A
:1008B000C583CCF0A3C8C582C8CCC583CCDFEADE33
:1008C000E880DB89828A83E493A3F208DFF980CC95
:1008D00088F0EF60010E4E60C388F0ED2402B4048E
:1008E0000050B9F582EB2402B4040050AF23234535
:0608F00082239008507302
:1008F600C2D5EC30E709B2D5E4C39DFDE49CFCEE1D
:1009060030E715B2D5E4C39FFFE49EFE12092CC35F
:10091600E49DFDE49CFC800312092C30D507C3E45A
:060926009FFFE49EFE228B
:10092C00BC000BBE0029EF8DF084FFADF022E4CCAF
:10093C00F875F008EF2FFFEE33FEEC33FCEE9DEC78
:10094C00984005FCEE9DFE0FD5F0E9E4CEFD22EDBE
:10095C00F8F5F0EE8420D21CFEADF075F008EF2F08
:10096C00FFED33FD4007985006D5F0F222C398FDF9
:05097C000FD5F0EA2296
:00000001FF
